:100000000C9439000C9456000C9456000C94560035
:100010000C9456000C9456000C9456000C94E70077
:100020000C9456000C9456000C9456000C945600F8
:100030000C9456000C9456000C9456000C945600E8
:100040000C9456000C9456000C9456000C945600D8
:100050000C9456000C9456000C9456000C945600C8
:100060000C9456000C94560009000A010B070C0171
:100070000F0011241FBECFEFD8E0DEBFCDBF11E0CF
:10008000A0E0B1E0E6ECFEE002C005900D92A836DB
:10009000B107D9F721E0A8E6B1E001C01D92A2386E
:1000A000B207E1F70E9465040C9461070C9400000C
:1000B0003898399852985A9A0E94630078940E940E
:1000C000D8010C945D0182E08093B00094E090939D
:1000D000B1008093700089EF8093B3000895CF93AF
:1000E000DF9300D000D0CDB7DEB78FB7F894209162
:1000F00068013091690140916A0150916B01298337
:100100003A834B835C838FBF69817A818B819C8129
:100110000F900F900F900F90DF91CF910895E4E62C
:10012000F0E080818F7B8083E0E7F0E08081826077
:1001300080830895E0E7F0E080818D7F8083E4E6AE
:10014000F0E080818064808308958FB7F8941092E6
:1001500068011092690110926A0110926B018FBFC1
:100160000895462F572FBC012FB7F894809168014E
:1001700090916901A0916A01B0916B01840F951F64
:10018000A61FB71F8093680190936901A0936A012D
:10019000B0936B012FBF0895462F572FBC012FB787
:1001A000F8948091680190916901A0916A01B091E1
:1001B0006B01841B950BA60BB70B80936801909382
:1001C0006901A0936A01B0936B012FBF08951F923C
:1001D0001FB61F9211248F939F93AF93BF9380916B
:1001E000680190916901A0916A01B0916B0101963B
:1001F000A11DB11D8093680190936901A0936A01CC
:10020000B0936B01BF91AF919F918F911F901FBED3
:100210001F901895803168F4E82FF0E0E459FE4F04
:1002200081E090E001C0880F6A95EAF76081682B51
:1002300060830895803188F4E82FF0E0E459FE4FA0
:1002400081E090E09C0102C0220F331F6A95E2F723
:10025000B90160958081682360830895E82FF0E0FC
:10026000E459FE4F8081089598E02D9887FF07C0DC
:100270002B9A2D9A880F91509111F7CF08952B98B2
:10028000F8CF0F931F93CF93DF93C62F2A98082F91
:1002900010E0C8010E943401D0E0CE010E94340178
:1002A000C8010E943401CE010E9434012A9A2D987F
:1002B000DF91CF911F910F9108950F931F93CF93CB
:1002C000DF93259A229A239AC8E6D0E002E710E04D
:1002D000FE018491319664910E94410122960C178F
:1002E0001D07B1F7DF91CF911F910F910895FF92F4
:1002F0000F931F93CF93DF93C8E0D0E080E8F82EF0
:100300002A9800E010E0CE010E943401F801E4597F
:10031000FE4F88E092912D989F219923B1F02B9A5E
:100320002D9A81508111F6CF085F1F4F08311105BA
:1003300051F72A9A2D98F6942197209709F7DF9183
:10034000CF911F910F91FF9008952B98E9CF9FEFC8
:10035000980F983010F40C9441010895CF93C82F52
:100360008A3019F48DE00E94AE018091C00085FFB3
:10037000FCCFC093C60080E090E0CF9108958091BB
:10038000C00087FFFCCF8091C60090E008951092D6
:10039000C50083E38093C400E0ECF0E080818D7FB2
:1003A000808386E08093C20088E18093C100089535
:1003B0000E94C701ECE7F1E08EE091E09383828335
:1003C00080E091E091838083089590917C00906417
:1003D00090937C0090917A00976090937A0090912E
:1003E0007A00906890937A0090917C00982B90937B
:1003F0007C0090917C00907F90937C00833029F169
:1004000090F48130C1F08230E1F080917A00806414
:1004100080937A0080917A0086FDFCCF80917800ED
:100420009091790008958430A1F0853071F7809122
:100430007C00856003C080917C00816080937C009B
:10044000E4CF80917C008260F9CF80917C00836052
:10045000F5CF80917C008460F1CF9C01CB012D32DF
:1004600041E034074CF06131710514F080E190E017
:1004700001962C3B324034F41816190614F081E032
:1004800090E0019708959C01CB012C3241E03407A4
:100490003CF46830710514F087E090E0019608950F
:1004A0002D3B324034F01816190614F081E090E02C
:1004B00001970895CF93DF93D82FC92F0E94EE069E
:1004C0006D2F7C2F0E943A06DF91CF910895CF9334
:1004D000DF93EC0182E090E00E94E5010E94F306C8
:1004E0000E94EE0660E170E00E943A0689830E9455
:1004F000EE0668E070E00E943A068A8381E0888315
:10050000898188302CF082E090E0DF91CF910895CE
:1005100083E090E0FACFFC01918182816330710524
:1005200041F49F5F9183628181810E940A010C9452
:1005300077016230710511F49150F4CF61157105A6
:1005400019F481508283EFCF6130710561F78F5FBD
:10055000F9CF1F93CF93DF93FC01108112308CF001
:10056000C12FCC0FDD0BC80FD91FFE013197808141
:10057000898368816A830E940A01115022971111B0
:10058000F4CFDF91CF911F910895CF93DF93CDB733
:10059000DEB74D81E42F042E000CFF0B242F220F19
:1005A000330B42309CF03196EE0FFF1F85E090E058
:1005B0008C0F9D1FE80FF91F280F391F6081D9018B
:1005C00011968C91DF91CF910C941A01319785E0AF
:1005D00090E08C0F9D1F280F391FEE0FFF1FE80FB3
:1005E000F91FD9016C918181EDCFFC019B01CA01FA
:1005F000AF01425051094230510548F42C5231406C
:1006000081E02139314008F080E090E00895329790
:1006100010F49C01F3CF81E0F8CF9C01FA012C3259
:1006200041E0340754F02D3B324084F083E090E009
:100630009183808381E090E0089582E090E0F8CF9C
:1006400080E090E0F5CF81E090E0F2CF6D3B22E0DA
:100650007207B4F76C327140B4F380E090E0089513
:10066000CF93DF93CDB7DEB79E819031B8F42F8161
:100670002830A0F43D81FE01359681E083172CF0EF
:1006800080E090E0DF91CF9108954381941303C0FF
:100690004481241719F08F5F3296F0CF81E090E00B
:1006A000F1CFCF93DF93EC0180E190E00E945A02FA
:1006B000888388E090E00E945A028983DF91CF917D
:1006C0000895DF92EF92FF920F931F93CF93DF93E2
:1006D000CDB7DEB7D82E6A85062E000C770BFE014B
:1006E0003A9640E050E0A82F880FBB0B092F092E47
:1006F000000C110B4617570750F080E090E0DF9197
:10070000CF911F910F91FF90EF90DF90089521817D
:100710002D1529F1022E000C330B79018FEFE81A09
:10072000F80AEA16FB06D9F021503109A217B307DF
:10073000B1F02281291799F0022E000C330B7901B8
:100740008FEFE81AF80AE016F10649F032962150C8
:1007500031090217130719F04F5F5F4FCBCF81E0CC
:1007600090E0CDCFFF920F931F93CF93DF93CDB740
:10077000DEB78C010E94510381E8F82EF8018081D8
:1007800091812DB73EB7215031400FB6F8943EBF4E
:100790000FBE2DBFADB7BEB7119621E031E0FE010F
:1007A000389601900D9221503040D9F70E94610394
:1007B0000FB6F894DEBF0FBECDBF892B81F4F801D0
:1007C000618180810E940A010E947701FF24F394D5
:1007D0008F2DDF91CF911F910F91FF900895FA9483
:1007E000FF20B1F3C8010E945103C8CF8F929F929E
:1007F000AF92BF92CF92DF92EF92FF920F931F932F
:10080000CF93DF93C62F6C01162FD0E087E0B82E70
:1008100096E0A92EA60EF60191906F01E12CF12C25
:100820008B2C8D1A292D30E040E050E060E070E024
:1008300080E090E00E2D0E945006217030E040E0F4
:1008400050E060E070E080E090E0A0E00E946B0685
:1008500031F0682D8A2D8E190E940A011D2FFFEF9D
:10086000EF1AFF0A88E0E816F104E1F6DF5FD830FE
:1008700091F60E9477018FEF8C0F810FDF91CF915E
:100880001F910F91FF90EF90DF90CF90BF90AF90AE
:100890009F908F9008950F931F93CF93DF93182FFE
:1008A000062FC0E0C1130FC0DF91CF911F910F91B0
:1008B0000C9477016D2F8C2F0E941A01DF5FD013EB
:1008C000F9CFCF5FEFCFD0E0FACFCDB7DEB7C555C8
:1008D000D1400FB6F894DEBF0FBECDBF0E945800C6
:1008E00080E2E0E2F1E0DE01AE5FBE4F01900D92EA
:1008F0008A95E1F788E1E0E4F1E0DE01AE5DBE4F0C
:1009000001900D928A95E1F780E1E8E5F1E0DE01E2
:10091000A65CBE4F01900D928A95E1F760E04A997E
:10092000B3C068E080E10E944B04C05BDE4F688189
:100930007981C055D1408E010F5F1F4FC8010E94C1
:100940006702C05BDE4F99838883C055D140CE01DA
:10095000825B9E4F0E9451032DB73EB7215031401C
:100960000FB6F8943EBF0FBE2DBFADB7BEB7119600
:1009700081E091E0F80101900D920197E1F7CE013D
:10098000825B9E4F0E94B203C65BDE4F18821982C3
:100990001A821B82CA54D1400FB6F894DEBF0FBE34
:1009A000CDBF0E946F00CE5ADE4F688379838A8361
:1009B0009B83C255D140C65BDE4F88819981AA8155
:1009C000BB81CA54D140CE5ADE4F288139814A8139
:1009D0005B81C255D140281B390B4A0B5B0BDA01F6
:1009E000C9018D329140A105B10508F47DC0C8014F
:1009F0000E94A902C05BDE4F68817981C055D14059
:100A0000C8010E948B024DB75EB7415051400FB6EE
:100A1000F8945EBF0FBE4DBFADB7BEB7119681E073
:100A200091E0F80101900D920197E1F70E943003E7
:100A30000FB6F894DEBF0FBECDBF892B09F447C0B7
:100A400068E080E10E944B0460E0CE01865C9E4F2E
:100A50000E94F603682F82E291E08C0F9D1F409662
:100A60000E94F603682F8AE391E08C0F9D1F089681
:100A70000E94F60380E090E0CB5ADE4F0FB6F89468
:100A8000DEBF0FBECDBF08956A3008F048CFCE015B
:100A90008E5F9E4F0E94F603682F82E091E08C0FDC
:100AA0009D1F08960E94F6036FEF680F82E091E0A9
:100AB0008C0F9D1F40960E94F603682F82E091E004
:100AC0008C0F9D1F48960E94F603682F28CF0E9426
:100AD0006F00462F572FBC01C65BDE4F48835983FA
:100AE0006A837B83CA54D14081E00E94E5016C0196
:100AF00080E00E94E5017C01AC01B601C05BDE4FE5
:100B000088819981C055D1400E94F502892B09F452
:100B10004AC0AE01405B5E4FB701C6010E940D03A3
:100B2000892B81F00E946F00462F572FBC01C65BB6
:100B3000DE4F488359836A837B83CA54D140C801FE
:100B40000E94A9026A81062E000C770BC6010E9442
:100B50002D028A836B81062E000C770BC7010E9441
:100B60004302682F8B838A810E940A014DB75EB7CA
:100B7000415051400FB6F8945EBF0FBE4DBFADB7A8
:100B8000BEB7119681E091E0F80101900D920197B6
:100B9000E1F70E9430030FB6F894DEBF0FBECDBF61
:100BA000892B09F04DCF0E9477014DB75EB74150B8
:100BB00051400FB6F8945EBF0FBE4DBFADB7BEB784
:100BC000119681E091E0F80101900D920197E1F713
:100BD0000E94C5020FB6F894DEBF0FBECDBF9A814A
:100BE000C25BDE4F8881CE54D1409813DACE9B8110
:100BF000C15BDE4F8881CF54D1409813D2CE89811A
:100C00008F5F89832DB73EB7215031400FB6F894DE
:100C10003EBF0FBE2DBFADB7BEB7119681E091E0CC
:100C2000F80101900D920197E1F7CE01825B9E4F92
:100C30000E94B2030FB6F894DEBF0FBECDBF811184
:100C4000B0CE68E080E10E944B0461E0CE018E5D91
:100C50009E4F0E94F603682F82E291E08C0F9D1F49
:100C600008960E94F603682F82E291E08C0F9D1F88
:100C70004096FECE97FB072E16F4009407D077FD22
:100C800009D00E94770607FC05D03EF49095819527
:100C90009F4F0895709561957F4F089597FD10942B
:100CA000002E083098F00850232F342F452F562F50
:100CB000672F782F892F912DF4CF159497958795CD
:100CC0007795679557954795379527950A95AAF78C
:100CD0001124002D08950024A7FD00942A17300543
:100CE0004005500560057005800590050895AA1B14
:100CF000BB1B51E107C0AA1FBB1FA617B70710F007
:100D0000A61BB70B881F991F5A95A9F78095909538
:100D1000BC01CD010895CF92DF92EF92FF92CF9365
:100D2000DF93CDB7DEB72A970FB6F894DEBF0FBEBC
:100D3000CDBF89879A87A985BA852D913D914D911F
:100D40005C9129833A834B835C8382E49EECACE024
:100D5000BFE1211531054105510549F1CA01B9012C
:100D60002DE133EF41E050E00E94FE0669017A0177
:100D7000A7EAB1E49B01AC010E941D0769837A8355
:100D80008B839C83ACEEB4EFA70196010E942B07E6
:100D90009B01AC0189819A81AB81BC81820F931F39
:100DA000A41FB51FB7FF03C00197A109B048E9858B
:100DB000FA8580839183A283B3839F772A960FB6A7
:100DC000F894DEBF0FBECDBFDF91CF91FF90EF90C3
:100DD000DF90CF9008950E948B0608958CE191E0FA
:100DE0000E948B060895A0E0B0E080931C019093D0
:100DF0001D01A0931E01B0931F010895052E97FBBE
:100E00001EF400940E94150757FD07D00E9430077A
:100E100007FC03D04EF40C9415075095409530957F
:100E200021953F4F4F4F5F4F089590958095709556
:100E300061957F4F8F4F9F4F08950E945207A59F46
:100E4000900DB49F900DA49F800D911D11240895C5
:100E5000B7FF0C941D070E941D07821B930B08957A
:100E6000A1E21A2EAA1BBB1BFD010DC0AA1FBB1FAE
:100E7000EE1FFF1FA217B307E407F50720F0A21B20
:100E8000B30BE40BF50B661F771F881F991F1A948D
:100E900069F760957095809590959B01AC01BD01B7
:100EA000CF010895A29FB001B39FC001A39F700D11
:100EB000811D1124911DB29F700D811D1124911D62
:060EC0000895F894FFCF35
:100EC60000000001000000000000BF01000000005B
:100ED600000200000000AE0100000000010000005A
:100EE600007040407050700000E0A0A0E0A0A0009C
:100EF6000088D8A8A888880000604040604060004C
:100F0600008888A8A8D8880000381010101038006B
:100F1600004464544C4444000078407040407800DB
:080F26000038242222243800C7
:00000001FF
