:100000000C9439000C9456000C9456000C94560035
:100010000C9456000C9456000C9456000C94E70077
:100020000C9456000C9456000C9456000C945600F8
:100030000C9456000C9456000C9456000C945600E8
:100040000C9456000C9456000C9456000C945600D8
:100050000C9456000C9456000C9456000C945600C8
:100060000C9456000C94560009000A010B070C0171
:100070000F0011241FBECFEFD8E0DEBFCDBF11E0CF
:10008000A0E0B1E0E4E9F4E102C005900D92AC3AE1
:10009000B107D9F721E0ACEAB1E001C01D92A63C5E
:1000A000B207E1F70E9485040C94480A0C94000002
:1000B0003898399852985A9A0E94630078940E940E
:1000C000D8010C945D0182E08093B00094E090939D
:1000D000B1008093700089EF8093B3000895CF93AF
:1000E000DF9300D000D0CDB7DEB78FB7F894209162
:1000F000AC013091AD014091AE015091AF01298327
:100100003A834B835C838FBF69817A818B819C8129
:100110000F900F900F900F90DF91CF910895E4E62C
:10012000F0E080818F7B8083E0E7F0E08081826077
:1001300080830895E0E7F0E080818D7F8083E4E6AE
:10014000F0E080818064808308958FB7F8941092E6
:10015000AC011092AD011092AE011092AF018FBFB1
:100160000895462F572FBC012FB7F8948091AC010A
:100170009091AD01A091AE01B091AF01840F951F98
:10018000A61FB71F8093AC019093AD01A093AE0161
:10019000B093AF012FBF0895462F572FBC012FB743
:1001A000F8948091AC019091AD01A091AE01B09115
:1001B000AF01841B950BA60BB70B8093AC019093FA
:1001C000AD01A093AE01B093AF012FBF08951F9270
:1001D0001FB61F9211248F939F93AF93BF9380916B
:1001E000AC019091AD01A091AE01B091AF0101962B
:1001F000A11DB11D8093AC019093AD01A093AE0100
:10020000B093AF01BF91AF919F918F911F901FBE8F
:100210001F901895803168F4E82FF0E0E055FE4F0C
:1002200081E090E001C0880F6A95EAF76081682B51
:1002300060830895803188F4E82FF0E0E055FE4FA8
:1002400081E090E09C0102C0220F331F6A95E2F723
:10025000B90160958081682360830895E82FF0E0FC
:10026000E055FE4F8081089598E02D9887FF07C0E4
:100270002B9A2D9A880F91509111F7CF08952B98B2
:10028000F8CF0F931F93CF93DF93C62F2A98082F91
:1002900010E0C8010E943401D0E0CE010E94340178
:1002A000C8010E943401CE010E9434012A9A2D987F
:1002B000DF91CF911F910F9108950F931F93CF93CB
:1002C000DF93259A229A239AC8E6D0E002E710E04D
:1002D000FE018491319664910E94410122960C178F
:1002E0001D07B1F7DF91CF911F910F910895FF92F4
:1002F0000F931F93CF93DF93C8E0D0E080E8F82EF0
:100300002A9800E010E0CE010E943401F801E05587
:10031000FE4F88E092912D989F219923B1F02B9A5E
:100320002D9A81508111F6CF085F1F4F08311105BA
:1003300051F72A9A2D98F6942197209709F7DF9183
:10034000CF911F910F91FF9008952B98E9CF9FEFC8
:10035000980F983010F40C9441010895CF93C82F52
:100360008A3019F48DE00E94AE018091C00085FFB3
:10037000FCCFC093C60080E090E0CF9108958091BB
:10038000C00087FFFCCF8091C60090E008951092D6
:10039000C50083E38093C400E0ECF0E080818D7FB2
:1003A000808386E08093C20088E18093C100089535
:1003B0000E94C701E0ECF1E08EE091E0938382833C
:1003C00080E091E091838083089590917C00906417
:1003D00090937C0090917A00976090937A0090912E
:1003E0007A00906890937A0090917C00982B90937B
:1003F0007C0090917C00907F90937C00833029F169
:1004000090F48130C1F08230E1F080917A00806414
:1004100080937A0080917A0086FDFCCF80917800ED
:100420009091790008958430A1F0853071F7809122
:100430007C00856003C080917C00816080937C009B
:10044000E4CF80917C008260F9CF80917C00836052
:10045000F5CF80917C008460F1CF9C01CB012C3BD7
:1004600042E034074CF46131710514F080E190E012
:1004700001962D32314034F01816190614F081E03F
:1004800090E0019708959C01CB012C3241E03407A4
:100490003CF46830710514F087E090E0019608950F
:1004A0002D3B324034F01816190614F081E090E02C
:1004B00001970895CF93DF93D82FC92F0E94E306A9
:1004C0006D2F7C2F0E942F06DF91CF910895CF933F
:1004D000DF93EC0182E090E00E94E5010E94E806D3
:1004E0000E94E30660E170E00E942F0689830E946B
:1004F000E30668E070E00E942F068A8391E098830B
:10050000682F89810E940A01898188302CF082E05D
:1005100090E0DF91CF91089583E090E0FACFFC0165
:10052000918182816330710541F49F5F9183628183
:1005300081810E940A010C9477016230710511F4E7
:100540009150F4CF6115710519F481508283EFCF7A
:100550006130710561F78F5FF9CFFC0180818F5F9A
:1005600080830895EF92FF920F931F93CF93DF93B1
:10057000FC01C081C230BCF10C2F0C2E000C110B01
:10058000CC0FDD0BC80FD91F82E7E82E81E0F82ED3
:10059000FE0131978081898398819A83292F092EC2
:1005A000000C330B3F939F931F930F93282F082E1C
:1005B000000C330B3F938F931F930F93FF92EF9297
:1005C0000E94F3066A8189810E940A010150110983
:1005D00022978DB79EB70A960FB6F8949EBF0FBEAE
:1005E0008DBF0111D5CFDF91CF911F910F91FF905A
:1005F000EF900895CF93DF93CDB7DEB74D81E42F11
:10060000042E000CFF0B242F220F330B42309CF0E2
:100610003196EE0FFF1F85E090E08C0F9D1FE80FD5
:10062000F91F280F391F6081D90111968C91DF9134
:10063000CF910C941A01319785E090E08C0F9D1FAB
:10064000280F391FEE0FFF1FE80FF91FD9016C911A
:100650008181EDCFFC019B01CA01AF0142505109DC
:100660004230510548F42C52314081E0213931406B
:1006700008F080E090E00895329710F49C01F3CFE9
:1006800081E0F8CF9C01FA012D3B42E0340754F49D
:100690002C32314084F483E090E09183808381E0C8
:1006A00090E0089582E090E0F8CF80E090E0F5CF10
:1006B00081E090E0F2CF6D3B22E07207B4F76C323C
:1006C0007140B4F380E090E00895BF92CF92DF9242
:1006D000EF92FF920F931F93CF93DF93CDB7DEB7C7
:1006E000CD848FE08C1560F481E090E0DF91CF91B4
:1006F0001F910F91FF90EF90DF90CF90BF900895E2
:10070000BE8497E0DD24D39427E9E22E21E0F22E87
:100710009B1550F38C85D8161CF080E090E0E6CF56
:100720000D2D0D2C000C110B1F93DF92FF92EF92F9
:100730000E94F306F801EE0FFF1F8CE090E08C0F93
:100740009D1FE80FF91F0F900F900F900F90818160
:10075000C8120EC0F8013196EE0FFF1F8CE090E03A
:100760008C0F9D1FE80FF91F8081B81609F4BCCFCC
:10077000D394D0CFCF93DF93EC0180E190E00E943F
:100780005A02888388E090E00E945A028983DF91B0
:10079000CF910895CF93DF93CDB7DEB780E090E09F
:1007A000DF91CF9108950F931F93CF93DF93CDB730
:1007B000DEB78C010E94BA03F801618180810E943A
:1007C0000A01DF91CF911F910F910C9477013F9215
:1007D0004F925F926F927F928F929F92AF92BF9251
:1007E000CF92DF92EF92FF920F931F93CF93DF93FD
:1007F000EC01512CE12CF12C9FE9692E91E0792E2E
:10080000FF92EF927F926F920E94F3060F900F90EB
:100810000F900F90C12CD12C3E2C4C2C1FEF150D9E
:1008200087E0A82EB12C4E018C0C9D1CF401208178
:1008300030E040E050E060E070E080E090E00A2DC1
:100840000E944506217030E040E050E060E070E03A
:1008500080E090E0A0E00E94600679F0642D812F96
:10086000332049F0F1E08DEF3F1621F082E038129D
:1008700030C089EF810F0E940A01E1E0AE1AB10891
:100880001F5FFFEFAF16BF0689F68FEFC81AD80AB1
:10089000E8E0CE16D10409F60E947701FFEFEF1AC7
:1008A000FF0A88E0580E2896E0E45E12A9CFDF9197
:1008B000CF911F910F91FF90EF90DF90CF90BF905D
:1008C000AF909F908F907F906F905F904F903F90F0
:1008D000089586EFCFCF0F931F93CF93DF93182FF9
:1008E000062FC0E0C1130FC0DF91CF911F910F9170
:1008F0000C9477016D2F8C2F0E941A01DF5FD013AB
:10090000F9CFCF5FEFCFD0E0FACFCDB7DEB7CD5282
:10091000D1400FB6F894DEBF0FBECDBF0E94580085
:10092000CE018E5F9E4F20E2E0E2F1E0DC0101901B
:100930000D922A95E1F720E0182F092F4A99BEC0A1
:1009400068E080E10E946B04C85DDE4F68817981B8
:10095000C852D1409E012F5F3F4F7901C9010E94CB
:100960006702C85DDE4F99838883C852D140CE01AB
:100970008A5D9E4F0E94BA034DB75EB74150514009
:100980000FB6F8945EBF0FBE4DBFADB7BEB71196A0
:1009900081E091E0F70101900D920197E1F7CE011E
:1009A0008A5D9E4F0E94D3030FB6F894DEBF0FBE40
:1009B000CDBF0E947701CE5DDE4F188219821A8268
:1009C0001B82C252D1401E2D0F2D80E4A82E81E043
:1009D000B82E0E946F00C65DDE4F688379838A83DC
:1009E0009B83CA52D140CE5DDE4F88819981AA8116
:1009F000BB81C252D140C65DDE4F288139814A8118
:100A00005B81CA52D140281B390B4A0B5B0BDA01C0
:100A1000C901853F9140A105B10508F464C0812F4B
:100A2000902F0E94B202C85DDE4F68817981C85262
:100A3000D140812F902F0E948F028B81282F082E6A
:100A4000000C330B3F938F938A81282F082E000CC4
:100A5000330B3F938F93BF92AF920E94F3064DB733
:100A60005EB7415051400FB6F8945EBF0FBE4DBF08
:100A7000ADB7BEB7119681E091E0E12FF02F019064
:100A80000D920197E1F70E9465030FB6F894DEBF5F
:100A90000FBECDBF892BD1F08EE491E09F938F9351
:100AA0000E94F3060F900F9080E090E0C35DDE4F50
:100AB0000FB6F894DEBF0FBECDBF089521113ECF13
:100AC000812F902F0E94E70321E038CF0E946F0012
:100AD000462F572FBC01CE5DDE4F488359836A8372
:100AE0007B83C252D14081E00E94E5016C0180E02D
:100AF0000E94E5017C01AC01B601C85DDE4F888132
:100B00009981C852D1400E942A03892B09F44EC012
:100B1000AE01485D5E4FB701C6010E944203892BBA
:100B200089F0812F902F0E94B2020E946F00462F01
:100B3000572FBC01CE5DDE4F488359836A837B8388
:100B4000C252D1406A81062E000C770BC6010E946A
:100B50002D028A836B81062E000C770BC7010E9441
:100B60004302682F8B838A810E940A014DB75EB7CA
:100B7000415051400FB6F8945EBF0FBE4DBFADB7A8
:100B8000BEB7119681E091E0E12FF02F01900D9218
:100B90000197E1F70E9465030FB6F894DEBF0FBE20
:100BA000CDBF892B19F08FE591E078CF0E947701B6
:100BB0004DB75EB7415051400FB6F8945EBF0FBEBF
:100BC0004DBFADB7BEB7119681E091E0E12FF02F98
:100BD00001900D920197E1F70E94FA020FB6F89486
:100BE000DEBF0FBECDBF9A81CA5DDE4F8881C6527F
:100BF000D14098132AC09B81C95DDE4F8881C752BE
:100C0000D140981322C0812F902F0E94AD022DB7A2
:100C10003EB7215031400FB6F8943EBF0FBE2DBFF6
:100C2000ADB7BEB7119681E091E0E12FF02F0190B2
:100C30000D920197E1F7CE018A5D9E4F0E94D3038A
:100C40000FB6F894DEBF0FBECDBF5FEF80E792E036
:100C5000515080409040E1F700C00000BACE97FBB1
:100C6000072E16F4009407D077FD09D00E946C0679
:100C700007FC05D03EF4909581959F4F089570959F
:100C800061957F4F089597FD1094002E083098F0DD
:100C90000850232F342F452F562F672F782F892F59
:100CA000912DF4CF159497958795779567955795DE
:100CB0004795379527950A95AAF71124002D089591
:100CC0000024A7FD00942A17300540055005600553
:100CD0007005800590050895AA1BBB1B51E107C054
:100CE000AA1FBB1FA617B70710F0A61BB70B881FBC
:100CF000991F5A95A9F780959095BC01CD0108954B
:100D0000CF92DF92EF92FF92CF93DF93CDB7DEB712
:100D10002A970FB6F894DEBF0FBECDBF89879A879A
:100D2000A985BA852D913D914D915C9129833A8396
:100D30004B835C8382E49EECACE0BFE1211531057E
:100D40004105510549F1CA01B9012DE133EF41E0F7
:100D500050E00E94AE0969017A01A7EAB1E49B0163
:100D6000AC010E94CD0969837A838B839C83ACEEAE
:100D7000B4EFA70196010E94DB099B01AC018981B8
:100D80009A81AB81BC81820F931FA41FB51FB7FF4F
:100D900003C00197A109B048E985FA858083918352
:100DA000A283B3839F772A960FB6F894DEBF0FBE57
:100DB000CDBFDF91CF91FF90EF90DF90CF9008955E
:100DC0000E94800608958CE191E00E9480060895BB
:100DD000A0E0B0E080931C0190931D01A0931E0140
:100DE000B0931F010895A0E0B0E0E9EFF6E00C94A5
:100DF000F009AE014B5F5F4FFA0161917191AF0154
:100E00008091C2019091C3010E940907E2E00C9415
:100E10000C0AAFE0B0E0EFE0F7E00C94E3096C01FE
:100E20007B018A01DC0117961C921E92169713967D
:100E30008C9181FFECC12AE0522EF6019381F701DB
:100E400093FD859193FF81917F01882309F473C0FD
:100E5000853239F493FD859193FF81917F0185322D
:100E600029F4B60190E00E942009E7CF912C612C73
:100E7000712CFFE1F71508F446C08B32C9F1F8F484
:100E80008032C1F1833209F43BC0833609F48AC051
:100E9000833709F493C0833509F0B6C0F801A190F7
:100EA000B1908F01692D70E076FC02C06FEF7FEF8B
:100EB000C5010E940A094C01689477F85FC08D3221
:100EC000E1F0803351F020ED280F2A3048F18E32C6
:100ED00009F039C0689476F802C0689470F8F70198
:100EE00093FD859193FF81917F018111C2CF33C022
:100EF000689471F8689472F8F2CF689473F8EFCF41
:100F0000689474F8ECCF77FC26C020ED280F2A30C7
:100F100070F476FE05C0959C200D1124922EDFCF33
:100F2000659C200D1124622E689475F8D8CF8E32FE
:100F300051F476FECFCFD60116968D919C912F96C7
:100F4000EFE00C94FF098C3619F4689477F8C7CF5A
:100F5000883609F4C4CF982F9F7D9554933008F0BC
:100F600094CF0C5F1F4F8FE3898388248394912C47
:100F7000AE014F5F5F4F5A01E89477F873FC05C0EC
:100F8000862D90E08816990640F18114910461F550
:100F9000662009F452CFB60180E290E00E94200959
:100FA0006A94F6CFD8018C9189830E5F1F4F8824F5
:100FB0008394912CFE0131965F01DECFD801AD9074
:100FC000BD908D01692D70E076FC02C06FEF7FEF60
:100FD000C5010E9415094C01CFCFB60180E290E017
:100FE0000E9420096A94CCCFF50177FC859177FEA9
:100FF00081915F01B60190E00E94200961106A941E
:10100000F1E08F1A9108C1CF843619F0893609F0C2
:1010100081C0F80177FE77C06191719181919191C2
:101020008F01272D2F76822E97FF09C090958095EE
:10103000709561957F4F8F4F9F4F689487F82AE096
:1010400030E0AE014F5F5F4F5A010E9450098A198C
:10105000A82EBA2C782C86FE0CC0E89470F8A9143F
:1010600040F484FE05C082FC03C0782D7E7E772E7E
:10107000B92C74FEA5C0FE01EA0DF11D80818033FC
:1010800009F097C0872D897E782E73FC0EC070FE04
:10109000A6C09A2CB61418F4960C9B18B62C862D64
:1010A0008B196B1408F480E0B80EB61408F099C0E0
:1010B0006B1874FE98C0B60180E390E00E9420098E
:1010C00072FE09C088E590E071FC02C088E790E0FC
:1010D000B6010E942009A91408F492C0AA94B12C68
:1010E0009FEFA91AB90ADE0111964D01AA0EBB1E87
:1010F000F50182915F01B60190E00E9420098A14F7
:101100009B04B1F745CF61917191072E000C880BBC
:10111000990B86CF872CE89484F82AE030E0853755
:1011200069F0572D597F852E803771F118F5883574
:1011300071F18F3609F0FFCE28E030E0F80187FE2C
:101140002EC081919191A191B1918C879D87AE879D
:10115000BF878F01BE016F5F7F4F5B01AB016C8565
:101160007D858E859F850E9450098A19A82EE89456
:1011700087F86FCF883709F0DECE84FE02C068940E
:1011800082F820E130E0DACF689484F8F6CF74FE7C
:1011900003C0652F6660862E20E132E0CFCF8191BB
:1011A0009191AC0160E070E04C875D876E877F872E
:1011B000D0CF72FC02C0B39468CFB394B39465CF20
:1011C000872D8678882309F460CFF5CFB60180E2B9
:1011D00090E00E94200983948614C0F360CF8B2C8A
:1011E000FBCF612C66CF872D8678882309F473CFD7
:1011F0008BE271FE80E277FC8DE2B60190E069CF70
:10120000B60180E390E00E9420099A9464CF8FEFAA
:101210009FEF95CEFC010590615070400110D8F70A
:10122000809590958E0F9F1F0895FC01615070402E
:1012300001900110D8F7809590958E0F9F1F08950B
:101240000F931F93CF93DF93182F092FEB018B81FF
:1012500081FD09C01FEF0FEF812F902FDF91CF91FC
:101260001F910F91089582FF14C02E813F818C81C0
:101270009D81281739073CF4E881F981CF01019657
:101280009983888310838E819F8101969F838E83AB
:10129000E3CFE885F985812F0995892BA1F3DACF72
:1012A000FA01AA27283051F1203181F1E8946F9397
:1012B0006E7F6E5F7F4F8F4F9F4FAF4FB1E03ED03D
:1012C000B4E03CD0670F781F891F9A1FA11D680FDB
:1012D000791F8A1F911DA11D6A0F711D811D911D0E
:1012E000A11D20D009F468943F912AE0269F112483
:1012F0003019305D3193DEF6CF010895462F4770E7
:10130000405D4193B3E00FD0C9F7F6CF462F4F7041
:10131000405D4A3318F0495D31FD4052419302D09F
:10132000A9F7EACFB4E0A695979587957795679545
:10133000BA95C9F700976105710508959B01AC0145
:101340000A2E06945795479537952795BA95C9F76C
:10135000620F731F841F951FA01D0895052E97FB14
:101360001EF400940E94C50957FD07D00E94170A79
:1013700007FC03D04EF40C94C50950954095309568
:1013800021953F4F4F4F5F4F0895909580957095F1
:1013900061957F4F8F4F9F4F08950E94390AA59FF7
:1013A000900DB49F900DA49F800D911D1124089560
:1013B000B7FF0C94CD090E94CD09821B930B0895B1
:1013C0002F923F924F925F926F927F928F929F9255
:1013D000AF92BF92CF92DF92EF92FF920F931F9343
:1013E000CF93DF93CDB7DEB7CA1BDB0B0FB6F894F4
:1013F000DEBF0FBECDBF09942A88398848885F8434
:101400006E847D848C849B84AA84B984C884DF80A4
:10141000EE80FD800C811B81AA81B981CE0FD11D88
:101420000FB6F894DEBF0FBECDBFED010895A1E267
:101430001A2EAA1BBB1BFD010DC0AA1FBB1FEE1F4E
:10144000FF1FA217B307E407F50720F0A21BB30B99
:10145000E40BF50B661F771F881F991F1A9469F715
:1014600060957095809590959B01AC01BD01CF0171
:101470000895A29FB001B39FC001A39F700D811D6D
:101480001124911DB29F700D811D1124911D08958D
:04149000F894FFCFFE
:1014940000000001000000000000BF010000000087
:1014A400000200000000AE01000000000100000086
:1014B400007040407050700000E0A0A0E0A0A000C8
:1014C4000088D8A8A8888800006040406040600078
:1014D40058203D20256459203D2025640A000A4BEC
:1014E400554B454E21206175746F64C3B664000A80
:1014F4004B554B454E2120736AC3A46C766D6F72B5
:1015040064005365676D656E742025642058203D22
:101514002025640A5365676D656E7420256420591F
:10152400203D2025640A006C6F6F702025640045FF
:0C1534006C656D656E742025640A000073
:00000001FF
